{"abi":[{"type":"constructor","inputs":[{"name":"_zkVerifier","type":"address","internalType":"address"},{"name":"_publicKeyDerHash","type":"bytes32","internalType":"bytes32"},{"name":"_appExeCommit","type":"bytes32","internalType":"bytes32"},{"name":"_appVmCommit","type":"bytes32","internalType":"bytes32"},{"name":"_minTradeValueCny","type":"uint256","internalType":"uint256"},{"name":"_maxTradeValueCny","type":"uint256","internalType":"uint256"},{"name":"_paymentWindow","type":"uint256","internalType":"uint256"}],"stateMutability":"nonpayable"},{"type":"function","name":"appExeCommit","inputs":[],"outputs":[{"name":"","type":"bytes32","internalType":"bytes32"}],"stateMutability":"view"},{"type":"function","name":"appVmCommit","inputs":[],"outputs":[{"name":"","type":"bytes32","internalType":"bytes32"}],"stateMutability":"view"},{"type":"function","name":"cancelExpiredTrade","inputs":[{"name":"tradeId","type":"bytes32","internalType":"bytes32"}],"outputs":[],"stateMutability":"nonpayable"},{"type":"function","name":"createAndLockOrder","inputs":[{"name":"token","type":"address","internalType":"address"},{"name":"totalAmount","type":"uint256","internalType":"uint256"},{"name":"exchangeRate","type":"uint256","internalType":"uint256"},{"name":"alipayId","type":"string","internalType":"string"},{"name":"alipayName","type":"string","internalType":"string"}],"outputs":[{"name":"orderId","type":"bytes32","internalType":"bytes32"}],"stateMutability":"nonpayable"},{"type":"function","name":"fillOrder","inputs":[{"name":"orderId","type":"bytes32","internalType":"bytes32"},{"name":"buyer","type":"address","internalType":"address"},{"name":"fillAmount","type":"uint256","internalType":"uint256"}],"outputs":[{"name":"tradeId","type":"bytes32","internalType":"bytes32"},{"name":"paymentNonce","type":"string","internalType":"string"}],"stateMutability":"nonpayable"},{"type":"function","name":"getOrder","inputs":[{"name":"orderId","type":"bytes32","internalType":"bytes32"}],"outputs":[{"name":"","type":"tuple","internalType":"struct ZkAliPayEscrow.Order","components":[{"name":"orderId","type":"bytes32","internalType":"bytes32"},{"name":"seller","type":"address","internalType":"address"},{"name":"token","type":"address","internalType":"address"},{"name":"totalAmount","type":"uint256","internalType":"uint256"},{"name":"remainingAmount","type":"uint256","internalType":"uint256"},{"name":"exchangeRate","type":"uint256","internalType":"uint256"},{"name":"alipayId","type":"string","internalType":"string"},{"name":"alipayName","type":"string","internalType":"string"},{"name":"createdAt","type":"uint256","internalType":"uint256"},{"name":"tokenDecimals","type":"uint8","internalType":"uint8"}]}],"stateMutability":"view"},{"type":"function","name":"getOrderAlipayId","inputs":[{"name":"orderId","type":"bytes32","internalType":"bytes32"}],"outputs":[{"name":"","type":"string","internalType":"string"}],"stateMutability":"view"},{"type":"function","name":"getOrderAlipayName","inputs":[{"name":"orderId","type":"bytes32","internalType":"bytes32"}],"outputs":[{"name":"","type":"string","internalType":"string"}],"stateMutability":"view"},{"type":"function","name":"getOrderRemainingAmount","inputs":[{"name":"orderId","type":"bytes32","internalType":"bytes32"}],"outputs":[{"name":"","type":"uint256","internalType":"uint256"}],"stateMutability":"view"},{"type":"function","name":"getOrderTotalAmount","inputs":[{"name":"orderId","type":"bytes32","internalType":"bytes32"}],"outputs":[{"name":"","type":"uint256","internalType":"uint256"}],"stateMutability":"view"},{"type":"function","name":"getTrade","inputs":[{"name":"tradeId","type":"bytes32","internalType":"bytes32"}],"outputs":[{"name":"","type":"tuple","internalType":"struct ZkAliPayEscrow.Trade","components":[{"name":"tradeId","type":"bytes32","internalType":"bytes32"},{"name":"orderId","type":"bytes32","internalType":"bytes32"},{"name":"buyer","type":"address","internalType":"address"},{"name":"tokenAmount","type":"uint256","internalType":"uint256"},{"name":"cnyAmount","type":"uint256","internalType":"uint256"},{"name":"paymentNonce","type":"string","internalType":"string"},{"name":"createdAt","type":"uint256","internalType":"uint256"},{"name":"expiresAt","type":"uint256","internalType":"uint256"},{"name":"status","type":"uint8","internalType":"enum ZkAliPayEscrow.TradeStatus"}]}],"stateMutability":"view"},{"type":"function","name":"getTradeStatus","inputs":[{"name":"tradeId","type":"bytes32","internalType":"bytes32"}],"outputs":[{"name":"","type":"uint8","internalType":"uint8"}],"stateMutability":"view"},{"type":"function","name":"isOrderFillable","inputs":[{"name":"orderId","type":"bytes32","internalType":"bytes32"}],"outputs":[{"name":"","type":"bool","internalType":"bool"}],"stateMutability":"view"},{"type":"function","name":"maxTradeValueCny","inputs":[],"outputs":[{"name":"","type":"uint256","internalType":"uint256"}],"stateMutability":"view"},{"type":"function","name":"minTradeValueCny","inputs":[],"outputs":[{"name":"","type":"uint256","internalType":"uint256"}],"stateMutability":"view"},{"type":"function","name":"orders","inputs":[{"name":"","type":"bytes32","internalType":"bytes32"}],"outputs":[{"name":"orderId","type":"bytes32","internalType":"bytes32"},{"name":"seller","type":"address","internalType":"address"},{"name":"token","type":"address","internalType":"address"},{"name":"totalAmount","type":"uint256","internalType":"uint256"},{"name":"remainingAmount","type":"uint256","internalType":"uint256"},{"name":"exchangeRate","type":"uint256","internalType":"uint256"},{"name":"alipayId","type":"string","internalType":"string"},{"name":"alipayName","type":"string","internalType":"string"},{"name":"createdAt","type":"uint256","internalType":"uint256"},{"name":"tokenDecimals","type":"uint8","internalType":"uint8"}],"stateMutability":"view"},{"type":"function","name":"owner","inputs":[],"outputs":[{"name":"","type":"address","internalType":"address"}],"stateMutability":"view"},{"type":"function","name":"pause","inputs":[],"outputs":[],"stateMutability":"nonpayable"},{"type":"function","name":"paused","inputs":[],"outputs":[{"name":"","type":"bool","internalType":"bool"}],"stateMutability":"view"},{"type":"function","name":"paymentWindow","inputs":[],"outputs":[{"name":"","type":"uint256","internalType":"uint256"}],"stateMutability":"view"},{"type":"function","name":"publicKeyDerHash","inputs":[],"outputs":[{"name":"","type":"bytes32","internalType":"bytes32"}],"stateMutability":"view"},{"type":"function","name":"renounceOwnership","inputs":[],"outputs":[],"stateMutability":"nonpayable"},{"type":"function","name":"submitPaymentProof","inputs":[{"name":"tradeId","type":"bytes32","internalType":"bytes32"},{"name":"userPublicValues","type":"bytes32","internalType":"bytes32"},{"name":"accumulator","type":"bytes","internalType":"bytes"},{"name":"proof","type":"bytes","internalType":"bytes"}],"outputs":[],"stateMutability":"nonpayable"},{"type":"function","name":"trades","inputs":[{"name":"","type":"bytes32","internalType":"bytes32"}],"outputs":[{"name":"tradeId","type":"bytes32","internalType":"bytes32"},{"name":"orderId","type":"bytes32","internalType":"bytes32"},{"name":"buyer","type":"address","internalType":"address"},{"name":"tokenAmount","type":"uint256","internalType":"uint256"},{"name":"cnyAmount","type":"uint256","internalType":"uint256"},{"name":"paymentNonce","type":"string","internalType":"string"},{"name":"createdAt","type":"uint256","internalType":"uint256"},{"name":"expiresAt","type":"uint256","internalType":"uint256"},{"name":"status","type":"uint8","internalType":"enum ZkAliPayEscrow.TradeStatus"}],"stateMutability":"view"},{"type":"function","name":"transferOwnership","inputs":[{"name":"newOwner","type":"address","internalType":"address"}],"outputs":[],"stateMutability":"nonpayable"},{"type":"function","name":"unpause","inputs":[],"outputs":[],"stateMutability":"nonpayable"},{"type":"function","name":"updateConfig","inputs":[{"name":"_minTradeValueCny","type":"uint256","internalType":"uint256"},{"name":"_maxTradeValueCny","type":"uint256","internalType":"uint256"},{"name":"_paymentWindow","type":"uint256","internalType":"uint256"}],"outputs":[],"stateMutability":"nonpayable"},{"type":"function","name":"updateZkPDFConfig","inputs":[{"name":"_publicKeyDerHash","type":"bytes32","internalType":"bytes32"},{"name":"_appExeCommit","type":"bytes32","internalType":"bytes32"},{"name":"_appVmCommit","type":"bytes32","internalType":"bytes32"}],"outputs":[],"stateMutability":"nonpayable"},{"type":"function","name":"updateZkVerifier","inputs":[{"name":"_newVerifier","type":"address","internalType":"address"}],"outputs":[],"stateMutability":"nonpayable"},{"type":"function","name":"withdrawAmount","inputs":[{"name":"orderId","type":"bytes32","internalType":"bytes32"},{"name":"amount","type":"uint256","internalType":"uint256"}],"outputs":[],"stateMutability":"nonpayable"},{"type":"function","name":"zkVerifier","inputs":[],"outputs":[{"name":"","type":"address","internalType":"contract IOpenVmHalo2Verifier"}],"stateMutability":"view"},{"type":"event","name":"ConfigUpdated","inputs":[{"name":"maxOrderSize","type":"uint256","indexed":false,"internalType":"uint256"},{"name":"paymentWindow","type":"uint256","indexed":false,"internalType":"uint256"}],"anonymous":false},{"type":"event","name":"OrderCreatedAndLocked","inputs":[{"name":"orderId","type":"bytes32","indexed":true,"internalType":"bytes32"},{"name":"seller","type":"address","indexed":true,"internalType":"address"},{"name":"token","type":"address","indexed":true,"internalType":"address"},{"name":"totalAmount","type":"uint256","indexed":false,"internalType":"uint256"},{"name":"exchangeRate","type":"uint256","indexed":false,"internalType":"uint256"},{"name":"alipayId","type":"string","indexed":false,"internalType":"string"},{"name":"alipayName","type":"string","indexed":false,"internalType":"string"}],"anonymous":false},{"type":"event","name":"OrderPartiallyWithdrawn","inputs":[{"name":"orderId","type":"bytes32","indexed":true,"internalType":"bytes32"},{"name":"withdrawnAmount","type":"uint256","indexed":false,"internalType":"uint256"},{"name":"newRemainingAmount","type":"uint256","indexed":false,"internalType":"uint256"}],"anonymous":false},{"type":"event","name":"OwnershipTransferred","inputs":[{"name":"previousOwner","type":"address","indexed":true,"internalType":"address"},{"name":"newOwner","type":"address","indexed":true,"internalType":"address"}],"anonymous":false},{"type":"event","name":"Paused","inputs":[{"name":"account","type":"address","indexed":false,"internalType":"address"}],"anonymous":false},{"type":"event","name":"ProofSubmitted","inputs":[{"name":"tradeId","type":"bytes32","indexed":true,"internalType":"bytes32"},{"name":"proofHash","type":"bytes32","indexed":false,"internalType":"bytes32"}],"anonymous":false},{"type":"event","name":"TradeCreated","inputs":[{"name":"tradeId","type":"bytes32","indexed":true,"internalType":"bytes32"},{"name":"orderId","type":"bytes32","indexed":true,"internalType":"bytes32"},{"name":"buyer","type":"address","indexed":true,"internalType":"address"},{"name":"token","type":"address","indexed":false,"internalType":"address"},{"name":"tokenAmount","type":"uint256","indexed":false,"internalType":"uint256"},{"name":"cnyAmount","type":"uint256","indexed":false,"internalType":"uint256"},{"name":"paymentNonce","type":"string","indexed":false,"internalType":"string"},{"name":"expiresAt","type":"uint256","indexed":false,"internalType":"uint256"}],"anonymous":false},{"type":"event","name":"TradeExpired","inputs":[{"name":"tradeId","type":"bytes32","indexed":true,"internalType":"bytes32"},{"name":"orderId","type":"bytes32","indexed":true,"internalType":"bytes32"},{"name":"tokenAmount","type":"uint256","indexed":false,"internalType":"uint256"}],"anonymous":false},{"type":"event","name":"TradeSettled","inputs":[{"name":"tradeId","type":"bytes32","indexed":true,"internalType":"bytes32"}],"anonymous":false},{"type":"event","name":"Unpaused","inputs":[{"name":"account","type":"address","indexed":false,"internalType":"address"}],"anonymous":false},{"type":"event","name":"ZkPDFConfigUpdated","inputs":[{"name":"publicKeyDerHash","type":"bytes32","indexed":false,"internalType":"bytes32"},{"name":"appExeCommit","type":"bytes32","indexed":false,"internalType":"bytes32"},{"name":"appVmCommit","type":"bytes32","indexed":false,"internalType":"bytes32"}],"anonymous":false},{"type":"event","name":"ZkVerifierUpdated","inputs":[{"name":"oldVerifier","type":"address","indexed":true,"internalType":"address"},{"name":"newVerifier","type":"address","indexed":true,"internalType":"address"}],"anonymous":false},{"type":"error","name":"AmountBelowMinimum","inputs":[]},{"type":"error","name":"AmountExceedsAvailable","inputs":[]},{"type":"error","name":"AmountTooLarge","inputs":[]},{"type":"error","name":"EnforcedPause","inputs":[]},{"type":"error","name":"ExpectedPause","inputs":[]},{"type":"error","name":"NotAuthorized","inputs":[]},{"type":"error","name":"OrderNotFound","inputs":[]},{"type":"error","name":"OwnableInvalidOwner","inputs":[{"name":"owner","type":"address","internalType":"address"}]},{"type":"error","name":"OwnableUnauthorizedAccount","inputs":[{"name":"account","type":"address","internalType":"address"}]},{"type":"error","name":"PaymentDetailsMismatch","inputs":[]},{"type":"error","name":"ProofVerificationFailed","inputs":[]},{"type":"error","name":"ReentrancyGuardReentrantCall","inputs":[]},{"type":"error","name":"TradeNotExpired","inputs":[]},{"type":"error","name":"TradeNotFound","inputs":[]},{"type":"error","name":"TradeNotPending","inputs":[]},{"type":"error","name":"TransferFailed","inputs":[]},{"type":"error","name":"WithdrawalExceedsAvailable","inputs":[]}],"bytecode":{"object":"0x608060405234801561000f575f5ffd5b506040516154913803806154918339818101604052810190610031919061037d565b3360015f819055505f73ffffffffffffffffffffffffffffffffffffffff168173ffffffffffffffffffffffffffffffffffffffff16036100a9575f6040517f1e4fbdf70000000000000000000000000000000000000000000000000000000081526004016100a09190610429565b60405180910390fd5b6100b8816101f660201b60201c565b505f83116100fb576040517f08c379a00000000000000000000000000000000000000000000000000000000081526004016100f29061049c565b60405180910390fd5b8282101561013e576040517f08c379a000000000000000000000000000000000000000000000000000000000815260040161013590610504565b60405180910390fd5b5f8111610180576040517f08c379a00000000000000000000000000000000000000000000000000000000081526004016101779061056c565b60405180910390fd5b8660025f6101000a81548173ffffffffffffffffffffffffffffffffffffffff021916908373ffffffffffffffffffffffffffffffffffffffff1602179055508560038190555084600481905550836005819055508260068190555081600781905550806008819055505050505050505061058a565b5f60015f9054906101000a900473ffffffffffffffffffffffffffffffffffffffff1690508160015f6101000a81548173ffffffffffffffffffffffffffffffffffffffff021916908373ffffffffffffffffffffffffffffffffffffffff1602179055508173ffffffffffffffffffffffffffffffffffffffff168173ffffffffffffffffffffffffffffffffffffffff167f8be0079c531659141344cd1fd0a4f28419497f9722a3daafe3b4186f6b6457e060405160405180910390a35050565b5f5ffd5b5f73ffffffffffffffffffffffffffffffffffffffff82169050919050565b5f6102e6826102bd565b9050919050565b6102f6816102dc565b8114610300575f5ffd5b50565b5f81519050610311816102ed565b92915050565b5f819050919050565b61032981610317565b8114610333575f5ffd5b50565b5f8151905061034481610320565b92915050565b5f819050919050565b61035c8161034a565b8114610366575f5ffd5b50565b5f8151905061037781610353565b92915050565b5f5f5f5f5f5f5f60e0888a031215610398576103976102b9565b5b5f6103a58a828b01610303565b97505060206103b68a828b01610336565b96505060406103c78a828b01610336565b95505060606103d88a828b01610336565b94505060806103e98a828b01610369565b93505060a06103fa8a828b01610369565b92505060c061040b8a828b01610369565b91505092959891949750929550565b610423816102dc565b82525050565b5f60208201905061043c5f83018461041a565b92915050565b5f82825260208201905092915050565b7f4d696e2074726164652076616c7565206d757374206265203e203000000000005f82015250565b5f610486601b83610442565b915061049182610452565b602082019050919050565b5f6020820190508181035f8301526104b38161047a565b9050919050565b7f4d6178206d757374206265203e3d206d696e00000000000000000000000000005f82015250565b5f6104ee601283610442565b91506104f9826104ba565b602082019050919050565b5f6020820190508181035f83015261051b816104e2565b9050919050565b7f5061796d656e742077696e646f77206d757374206265203e20300000000000005f82015250565b5f610556601a83610442565b915061056182610522565b602082019050919050565b5f6020820190508181035f8301526105838161054a565b9050919050565b614efa806105975f395ff3fe608060405234801561000f575f5ffd5b50600436106101e2575f3560e01c80637ba67e1f1161010d578063af472c06116100a0578063d6df096d1161006f578063d6df096d1461058e578063e3ab81a0146105ac578063e760d977146105dc578063f2fde38b1461060c576101e2565b8063af472c061461051a578063cab55d5614610538578063ce3ba25f14610556578063d0d1ec0c14610572576101e2565b80639c3f1e90116100dc5780639c3f1e90146104635780639cd0f3f01461049c578063a3b13799146104cc578063a4edf4ed146104fc576101e2565b80637ba67e1f146103db5780637c132e261461040b5780638456cb591461043b5780638da5cb5b14610445576101e2565b80633f4ba83a11610185578063715018a611610154578063715018a61461035457806373ad49461461035e578063774073991461037a57806378b3f2ec146103aa576101e2565b80633f4ba83a146102e05780635778472a146102ea5780635c975abb1461031a5780636c98801414610338576101e2565b80630e9aa4b3116101c15780630e9aa4b31461025657806319159a00146102745780631e958f62146102925780633516f563146102b0576101e2565b8062162420146101e65780630148606c1461021e5780630d82ec5a1461023a575b5f5ffd5b61020060048036038101906101fb91906134dd565b610628565b60405161021599989796959493929190613651565b60405180910390f35b6102386004803603810190610233919061370d565b610723565b005b610254600480360381019061024f9190613738565b6107ee565b005b61025e61084b565b60405161026b9190613788565b60405180910390f35b61027c610851565b6040516102899190613788565b60405180910390f35b61029a610857565b6040516102a791906137a1565b60405180910390f35b6102ca60048036038101906102c591906134dd565b61085d565b6040516102d791906137ba565b60405180910390f35b6102e8610901565b005b61030460048036038101906102ff91906134dd565b610913565b6040516103119190613948565b60405180910390f35b610322610b56565b60405161032f9190613982565b60405180910390f35b610352600480360381019061034d91906134dd565b610b6c565b005b61035c610d6a565b005b610378600480360381019061037391906139c5565b610d7d565b005b610394600480360381019061038f91906134dd565b610df7565b6040516103a19190613a24565b60405180910390f35b6103c460048036038101906103bf9190613a3d565b610e32565b6040516103d2929190613a8d565b60405180910390f35b6103f560048036038101906103f091906134dd565b611258565b60405161040291906137a1565b60405180910390f35b61042560048036038101906104209190613b1c565b611275565b6040516104329190613788565b60405180910390f35b610443611691565b005b61044d6116a3565b60405161045a9190613bd3565b60405180910390f35b61047d600480360381019061047891906134dd565b6116cb565b6040516104939a99989796959493929190613bec565b60405180910390f35b6104b660048036038101906104b191906134dd565b611871565b6040516104c39190613982565b60405180910390f35b6104e660048036038101906104e191906134dd565b611ab8565b6040516104f39190613d65565b60405180910390f35b610504611c3e565b60405161051191906137a1565b60405180910390f35b610522611c44565b60405161052f9190613788565b60405180910390f35b610540611c4a565b60405161054d91906137a1565b60405180910390f35b610570600480360381019061056b9190613d85565b611c50565b005b61058c60048036038101906105879190613e18565b611f1b565b005b61059661252e565b6040516105a39190613f16565b60405180910390f35b6105c660048036038101906105c191906134dd565b612553565b6040516105d391906137ba565b60405180910390f35b6105f660048036038101906105f191906134dd565b6125f7565b60405161060391906137a1565b60405180910390f35b6106266004803603810190610621919061370d565b612614565b005b600a602052805f5260405f205f91509050805f015490806001015490806002015f9054906101000a900473ffffffffffffffffffffffffffffffffffffffff169080600301549080600401549080600501805461068490613f5c565b80601f01602080910402602001604051908101604052809291908181526020018280546106b090613f5c565b80156106fb5780601f106106d2576101008083540402835291602001916106fb565b820191905f5260205f20905b8154815290600101906020018083116106de57829003601f168201915b505050505090806006015490806007015490806008015f9054906101000a900460ff16905089565b61072b612698565b5f60025f9054906101000a900473ffffffffffffffffffffffffffffffffffffffff1690508160025f6101000a81548173ffffffffffffffffffffffffffffffffffffffff021916908373ffffffffffffffffffffffffffffffffffffffff1602179055508173ffffffffffffffffffffffffffffffffffffffff168173ffffffffffffffffffffffffffffffffffffffff167ff335fdec5c467dfdc8bca7991b97cb3bc62c88c8467dedce3044baff0527cad660405160405180910390a35050565b6107f6612698565b8260038190555081600481905550806005819055507f8e26a4d6d5e5fff2597d3cffd592949d56c44e31ae67d2d9034ece64b43ad76583838360405161083e93929190613f8c565b60405180910390a1505050565b60045481565b60035481565b60065481565b606060095f8381526020019081526020015f20600601805461087e90613f5c565b80601f01602080910402602001604051908101604052809291908181526020018280546108aa90613f5c565b80156108f55780601f106108cc576101008083540402835291602001916108f5565b820191905f5260205f20905b8154815290600101906020018083116108d857829003601f168201915b50505050509050919050565b610909612698565b61091161271f565b565b61091b6133bc565b60095f8381526020019081526020015f20604051806101400160405290815f8201548152602001600182015f9054906101000a900473ffffffffffffffffffffffffffffffffffffffff1673ffffffffffffffffffffffffffffffffffffffff1673ffffffffffffffffffffffffffffffffffffffff168152602001600282015f9054906101000a900473ffffffffffffffffffffffffffffffffffffffff1673ffffffffffffffffffffffffffffffffffffffff1673ffffffffffffffffffffffffffffffffffffffff168152602001600382015481526020016004820154815260200160058201548152602001600682018054610a1990613f5c565b80601f0160208091040260200160405190810160405280929190818152602001828054610a4590613f5c565b8015610a905780601f10610a6757610100808354040283529160200191610a90565b820191905f5260205f20905b815481529060010190602001808311610a7357829003601f168201915b50505050508152602001600782018054610aa990613f5c565b80601f0160208091040260200160405190810160405280929190818152602001828054610ad590613f5c565b8015610b205780601f10610af757610100808354040283529160200191610b20565b820191905f5260205f20905b815481529060010190602001808311610b0357829003601f168201915b5050505050815260200160088201548152602001600982015f9054906101000a900460ff1660ff1660ff16815250509050919050565b5f600160149054906101000a900460ff16905090565b610b74612781565b5f600a5f8381526020019081526020015f2090505f60095f836001015481526020019081526020015f2090505f73ffffffffffffffffffffffffffffffffffffffff16826002015f9054906101000a900473ffffffffffffffffffffffffffffffffffffffff1673ffffffffffffffffffffffffffffffffffffffff1603610c28576040517f630bae0400000000000000000000000000000000000000000000000000000000815260040160405180910390fd5b5f6002811115610c3b57610c3a6135de565b5b826008015f9054906101000a900460ff166002811115610c5e57610c5d6135de565b5b14610c95576040517f5f3f6cfc00000000000000000000000000000000000000000000000000000000815260040160405180910390fd5b81600701544211610cd2576040517fe170cd2900000000000000000000000000000000000000000000000000000000815260040160405180910390fd5b6002826008015f6101000a81548160ff02191690836002811115610cf957610cf86135de565b5b02179055508160030154816004015f828254610d159190613fee565b925050819055508160010154837fe8bf8cb38bf5f2c3f667ddb2da5a2102e36076876e664f9a9b7b9ac023b9ca3e8460030154604051610d5591906137a1565b60405180910390a35050610d676127c5565b50565b610d72612698565b610d7b5f6127ce565b565b610d85612698565b5f831115610d9557826006819055505b5f821115610da557816007819055505b5f811115610db557806008819055505b7f0936b3616d5072fa8f7381ef8e7c35d39bed9ecfb2184e908a56027ad5c0b6bc600754600854604051610dea929190614021565b60405180910390a1505050565b5f600a5f8381526020019081526020015f206008015f9054906101000a900460ff166002811115610e2b57610e2a6135de565b5b9050919050565b5f6060610e3d612781565b610e45612891565b5f60095f8781526020019081526020015f2090505f73ffffffffffffffffffffffffffffffffffffffff16816001015f9054906101000a900473ffffffffffffffffffffffffffffffffffffffff1673ffffffffffffffffffffffffffffffffffffffff1603610ee1576040517fd36d896500000000000000000000000000000000000000000000000000000000815260040160405180910390fd5b5f816009015f9054906101000a900460ff16600a610eff9190614177565b826005015486610f0f91906141c1565b610f19919061422f565b9050600654811015610f57576040517f2fcd1a0f00000000000000000000000000000000000000000000000000000000815260040160405180910390fd5b600754811115610f93576040517f0625040100000000000000000000000000000000000000000000000000000000815260040160405180910390fd5b8160040154851115610fd1576040517f339cee2100000000000000000000000000000000000000000000000000000000815260040160405180910390fd5b86868642600b5f815480929190610fe79061425f565b91905055604051602001610fff95949392919061432b565b604051602081830303815290604052805190602001209350611020846128d2565b92505f826009015f9054906101000a900460ff16600a6110409190614177565b83600501548761105091906141c1565b61105a919061422f565b90505f6008544261106b9190613fee565b90506040518061012001604052808781526020018a81526020018973ffffffffffffffffffffffffffffffffffffffff1681526020018881526020018381526020018681526020014281526020018281526020015f60028111156110d2576110d16135de565b5b815250600a5f8881526020019081526020015f205f820151815f0155602082015181600101556040820151816002015f6101000a81548173ffffffffffffffffffffffffffffffffffffffff021916908373ffffffffffffffffffffffffffffffffffffffff160217905550606082015181600301556080820151816004015560a0820151816005019081611167919061454d565b5060c0820151816006015560e08201518160070155610100820151816008015f6101000a81548160ff021916908360028111156111a7576111a66135de565b5b021790555090505086846004015f8282546111c2919061461c565b925050819055508773ffffffffffffffffffffffffffffffffffffffff1689877f7da12809aa3d9b9dd63eb15f6dd4dcf8fb8048f02a3dde3abf03b472289e218f876002015f9054906101000a900473ffffffffffffffffffffffffffffffffffffffff168b878b8860405161123c95949392919061464f565b60405180910390a4505050506112506127c5565b935093915050565b5f60095f8381526020019081526020015f20600301549050919050565b5f61127e612781565b611286612891565b5f8873ffffffffffffffffffffffffffffffffffffffff1663313ce5676040518163ffffffff1660e01b8152600401602060405180830381865afa1580156112d0573d5f5f3e3d5ffd5b505050506040513d601f19601f820116820180604052508101906112f491906146d1565b905033888842600b5f81548092919061130c9061425f565b919050556040516020016113249594939291906146fc565b6040516020818303038152906040528051906020012091506040518061014001604052808381526020013373ffffffffffffffffffffffffffffffffffffffff1681526020018a73ffffffffffffffffffffffffffffffffffffffff16815260200189815260200189815260200188815260200187878080601f0160208091040260200160405190810160405280939291908181526020018383808284375f81840152601f19601f82011690508083019250505050505050815260200185858080601f0160208091040260200160405190810160405280939291908181526020018383808284375f81840152601f19601f8201169050808301925050505050505081526020014281526020018260ff1681525060095f8481526020019081526020015f205f820151815f01556020820151816001015f6101000a81548173ffffffffffffffffffffffffffffffffffffffff021916908373ffffffffffffffffffffffffffffffffffffffff1602179055506040820151816002015f6101000a81548173ffffffffffffffffffffffffffffffffffffffff021916908373ffffffffffffffffffffffffffffffffffffffff160217905550606082015181600301556080820151816004015560a0820151816005015560c082015181600601908161150f919061454d565b5060e0820151816007019081611525919061454d565b506101008201518160080155610120820151816009015f6101000a81548160ff021916908360ff1602179055509050505f8973ffffffffffffffffffffffffffffffffffffffff166323b872dd33308c6040518463ffffffff1660e01b81526004016115939392919061475a565b6020604051808303815f875af11580156115af573d5f5f3e3d5ffd5b505050506040513d601f19601f820116820180604052508101906115d391906147b9565b90508061160c576040517f90b8ec1800000000000000000000000000000000000000000000000000000000815260040160405180910390fd5b8973ffffffffffffffffffffffffffffffffffffffff163373ffffffffffffffffffffffffffffffffffffffff16847fb2950a7fb38b25d07f8dfc3ed49d71143616918ef29f49fbc252d1df1b4b62f38c8c8c8c8c8c6040516116749695949392919061481e565b60405180910390a450506116866127c5565b979650505050505050565b611699612698565b6116a1612a20565b565b5f60015f9054906101000a900473ffffffffffffffffffffffffffffffffffffffff16905090565b6009602052805f5260405f205f91509050805f015490806001015f9054906101000a900473ffffffffffffffffffffffffffffffffffffffff1690806002015f9054906101000a900473ffffffffffffffffffffffffffffffffffffffff169080600301549080600401549080600501549080600601805461174c90613f5c565b80601f016020809104026020016040519081016040528092919081815260200182805461177890613f5c565b80156117c35780601f1061179a576101008083540402835291602001916117c3565b820191905f5260205f20905b8154815290600101906020018083116117a657829003601f168201915b5050505050908060070180546117d890613f5c565b80601f016020809104026020016040519081016040528092919081815260200182805461180490613f5c565b801561184f5780601f106118265761010080835404028352916020019161184f565b820191905f5260205f20905b81548152906001019060200180831161183257829003601f168201915b505050505090806008015490806009015f9054906101000a900460ff1690508a565b5f5f60095f8481526020019081526020015f20604051806101400160405290815f8201548152602001600182015f9054906101000a900473ffffffffffffffffffffffffffffffffffffffff1673ffffffffffffffffffffffffffffffffffffffff1673ffffffffffffffffffffffffffffffffffffffff168152602001600282015f9054906101000a900473ffffffffffffffffffffffffffffffffffffffff1673ffffffffffffffffffffffffffffffffffffffff1673ffffffffffffffffffffffffffffffffffffffff16815260200160038201548152602001600482015481526020016005820154815260200160068201805461197190613f5c565b80601f016020809104026020016040519081016040528092919081815260200182805461199d90613f5c565b80156119e85780601f106119bf576101008083540402835291602001916119e8565b820191905f5260205f20905b8154815290600101906020018083116119cb57829003601f168201915b50505050508152602001600782018054611a0190613f5c565b80601f0160208091040260200160405190810160405280929190818152602001828054611a2d90613f5c565b8015611a785780601f10611a4f57610100808354040283529160200191611a78565b820191905f5260205f20905b815481529060010190602001808311611a5b57829003601f168201915b5050505050815260200160088201548152602001600982015f9054906101000a900460ff1660ff1660ff168152505090505f816080015111915050919050565b611ac0613436565b600a5f8381526020019081526020015f20604051806101200160405290815f820154815260200160018201548152602001600282015f9054906101000a900473ffffffffffffffffffffffffffffffffffffffff1673ffffffffffffffffffffffffffffffffffffffff1673ffffffffffffffffffffffffffffffffffffffff1681526020016003820154815260200160048201548152602001600582018054611b6990613f5c565b80601f0160208091040260200160405190810160405280929190818152602001828054611b9590613f5c565b8015611be05780601f10611bb757610100808354040283529160200191611be0565b820191905f5260205f20905b815481529060010190602001808311611bc357829003601f168201915b505050505081526020016006820154815260200160078201548152602001600882015f9054906101000a900460ff166002811115611c2157611c206135de565b5b6002811115611c3357611c326135de565b5b815250509050919050565b60075481565b60055481565b60085481565b611c58612781565b5f60095f8481526020019081526020015f2090505f73ffffffffffffffffffffffffffffffffffffffff16816001015f9054906101000a900473ffffffffffffffffffffffffffffffffffffffff1673ffffffffffffffffffffffffffffffffffffffff1603611cf4576040517fd36d896500000000000000000000000000000000000000000000000000000000815260040160405180910390fd5b806001015f9054906101000a900473ffffffffffffffffffffffffffffffffffffffff1673ffffffffffffffffffffffffffffffffffffffff163373ffffffffffffffffffffffffffffffffffffffff1614611d7c576040517fea8e4eb500000000000000000000000000000000000000000000000000000000815260040160405180910390fd5b8060040154821115611dba576040517f8cce984e00000000000000000000000000000000000000000000000000000000815260040160405180910390fd5b81816004015f828254611dcd919061461c565b925050819055505f816002015f9054906101000a900473ffffffffffffffffffffffffffffffffffffffff1673ffffffffffffffffffffffffffffffffffffffff1663a9059cbb836001015f9054906101000a900473ffffffffffffffffffffffffffffffffffffffff16856040518363ffffffff1660e01b8152600401611e56929190614873565b6020604051808303815f875af1158015611e72573d5f5f3e3d5ffd5b505050506040513d601f19601f82011682018060405250810190611e9691906147b9565b905080611ecf576040517f90b8ec1800000000000000000000000000000000000000000000000000000000815260040160405180910390fd5b837fd51d74a779099a0492e0eb19d230e974d6cf5623cd5cce7c367262e09556e9b5848460040154604051611f05929190614021565b60405180910390a25050611f176127c5565b5050565b611f23612781565b611f2b612891565b5f600a5f8881526020019081526020015f2090505f60095f836001015481526020019081526020015f2090505f73ffffffffffffffffffffffffffffffffffffffff16826002015f9054906101000a900473ffffffffffffffffffffffffffffffffffffffff1673ffffffffffffffffffffffffffffffffffffffff1603611fdf576040517f630bae0400000000000000000000000000000000000000000000000000000000815260040160405180910390fd5b5f6002811115611ff257611ff16135de565b5b826008015f9054906101000a900460ff166002811115612015576120146135de565b5b1461204c576040517f5f3f6cfc00000000000000000000000000000000000000000000000000000000815260040160405180910390fd5b816007015442111561208a576040517f5f3f6cfc00000000000000000000000000000000000000000000000000000000815260040160405180910390fd5b5f61223982600701805461209d90613f5c565b80601f01602080910402602001604051908101604052809291908181526020018280546120c990613f5c565b80156121145780601f106120eb57610100808354040283529160200191612114565b820191905f5260205f20905b8154815290600101906020018083116120f757829003601f168201915b505050505083600601805461212890613f5c565b80601f016020809104026020016040519081016040528092919081815260200182805461215490613f5c565b801561219f5780601f106121765761010080835404028352916020019161219f565b820191905f5260205f20905b81548152906001019060200180831161218257829003601f168201915b505050505085600401548660050180546121b890613f5c565b80601f01602080910402602001604051908101604052809291908181526020018280546121e490613f5c565b801561222f5780601f106122065761010080835404028352916020019161222f565b820191905f5260205f20905b81548152906001019060200180831161221257829003601f168201915b5050505050612a82565b9050808814612274576040517f826d29e400000000000000000000000000000000000000000000000000000000815260040160405180910390fd5b5f88604051602001612286919061489a565b60405160208183030381529060405290505f888888886040516020016122af94939291906148e2565b604051602081830303815290604052905060025f9054906101000a900473ffffffffffffffffffffffffffffffffffffffff1673ffffffffffffffffffffffffffffffffffffffff166324270d5483836004546005546040518563ffffffff1660e01b8152600401612324949392919061495b565b5f6040518083038186803b15801561233a575f5ffd5b505afa92505050801561234b575060015b612381576040517fd611c31800000000000000000000000000000000000000000000000000000000815260040160405180910390fd5b6001856008015f6101000a81548160ff021916908360028111156123a8576123a76135de565b5b02179055508a7f7a47e9847f34fd5c9a8cbe3dacf9926ef72d82d83a9c28a4044ecc80353c115f82805190602001206040516123e49190613788565b60405180910390a25f846002015f9054906101000a900473ffffffffffffffffffffffffffffffffffffffff1673ffffffffffffffffffffffffffffffffffffffff1663a9059cbb876002015f9054906101000a900473ffffffffffffffffffffffffffffffffffffffff1688600301546040518363ffffffff1660e01b8152600401612472929190614873565b6020604051808303815f875af115801561248e573d5f5f3e3d5ffd5b505050506040513d601f19601f820116820180604052508101906124b291906147b9565b9050806124eb576040517f90b8ec1800000000000000000000000000000000000000000000000000000000815260040160405180910390fd5b8b7fc00a7697d7b89194c96bfa130753296c02f33448167ad061fedd39d4a4df77fc60405160405180910390a25050505050506125266127c5565b505050505050565b60025f9054906101000a900473ffffffffffffffffffffffffffffffffffffffff1681565b606060095f8381526020019081526020015f20600701805461257490613f5c565b80601f01602080910402602001604051908101604052809291908181526020018280546125a090613f5c565b80156125eb5780601f106125c2576101008083540402835291602001916125eb565b820191905f5260205f20905b8154815290600101906020018083116125ce57829003601f168201915b50505050509050919050565b5f60095f8381526020019081526020015f20600401549050919050565b61261c612698565b5f73ffffffffffffffffffffffffffffffffffffffff168173ffffffffffffffffffffffffffffffffffffffff160361268c575f6040517f1e4fbdf70000000000000000000000000000000000000000000000000000000081526004016126839190613bd3565b60405180910390fd5b612695816127ce565b50565b6126a0612cf0565b73ffffffffffffffffffffffffffffffffffffffff166126be6116a3565b73ffffffffffffffffffffffffffffffffffffffff161461271d576126e1612cf0565b6040517f118cdaa70000000000000000000000000000000000000000000000000000000081526004016127149190613bd3565b60405180910390fd5b565b612727612cf7565b5f600160146101000a81548160ff0219169083151502179055507f5db9ee0a495bf2e6ff9c91a7834c1ba4fdd244a5e8aa4e537bd38aeae4b073aa61276a612cf0565b6040516127779190613bd3565b60405180910390a1565b60025f54036127bc576040517f3ee5aeb500000000000000000000000000000000000000000000000000000000815260040160405180910390fd5b60025f81905550565b60015f81905550565b5f60015f9054906101000a900473ffffffffffffffffffffffffffffffffffffffff1690508160015f6101000a81548173ffffffffffffffffffffffffffffffffffffffff021916908373ffffffffffffffffffffffffffffffffffffffff1602179055508173ffffffffffffffffffffffffffffffffffffffff168173ffffffffffffffffffffffffffffffffffffffff167f8be0079c531659141344cd1fd0a4f28419497f9722a3daafe3b4186f6b6457e060405160405180910390a35050565b612899610b56565b156128d0576040517fd93c066500000000000000000000000000000000000000000000000000000000815260040160405180910390fd5b565b60605f6305f5e100835f1c6128e791906149ac565b90505f6040518060400160405280600a81526020017f303132333435363738390000000000000000000000000000000000000000000081525090505f600867ffffffffffffffff81111561293e5761293d614389565b5b6040519080825280601f01601f1916602001820160405280156129705781602001600182028036833780820191505090505b5090505f5f90505b6008811015612a145782600a8561298f91906149ac565b815181106129a05761299f6149dc565b5b602001015160f81c60f81b828260076129b9919061461c565b815181106129ca576129c96149dc565b5b60200101907effffffffffffffffffffffffffffffffffffffffffffffffffffffffffffff191690815f1a905350600a84612a05919061422f565b93508080600101915050612978565b50809350505050919050565b612a28612891565b60018060146101000a81548160ff0219169083151502179055507f62e78cea01bee320cd4e420270b5ea74000d11b0c9f74754ebdbfc544b05a258612a6b612cf0565b604051612a789190613bd3565b60405180910390a1565b5f5f6040518060800160405280601463ffffffff1663ffffffff168152602001601563ffffffff1663ffffffff168152602001601d63ffffffff1663ffffffff168152602001602063ffffffff1663ffffffff1681525090505f612ae585612d37565b90505f612af187612dd8565b90505f88604051602001612b059190614a8d565b60405160208183030381529060405290505f82604051602001612b289190614af8565b60405160208183030381529060405290505f84604051602001612b4b9190614b63565b60405160208183030381529060405290505f8890505f612b81885f60048110612b7757612b766149dc565b5b60200201516130d2565b85612ba38a600160048110612b9957612b986149dc565b5b60200201516130d2565b86612bc58c600260048110612bbb57612bba6149dc565b5b60200201516130d2565b87612be78e600360048110612bdd57612bdc6149dc565b5b60200201516130d2565b88604051602001612bff989796959493929190614bb4565b60405160208183030381529060405290505f600282604051612c219190614c25565b602060405180830381855afa158015612c3c573d5f5f3e3d5ffd5b5050506040513d601f19601f82011682018060405250810190612c5f9190614c4f565b90505f600160f81b60035483604051602001612c7d93929190614cc5565b6040516020818303038152906040529050600281604051612c9e9190614c25565b602060405180830381855afa158015612cb9573d5f5f3e3d5ffd5b5050506040513d601f19601f82011682018060405250810190612cdc9190614c4f565b9a5050505050505050505050949350505050565b5f33905090565b612cff610b56565b612d35576040517f8dfc202b00000000000000000000000000000000000000000000000000000000815260040160405180910390fd5b565b60605f606483612d47919061422f565b90505f606484612d5791906149ac565b90505f612d6383613263565b90506060600a831015612d9f57612d7983613263565b604051602001612d899190614d4b565b6040516020818303038152906040529050612dab565b612da883613263565b90505b8181604051602001612dbe929190614db6565b604051602081830303815290604052945050505050919050565b60605f829050600b815114612e22576040517f08c379a0000000000000000000000000000000000000000000000000000000008152600401612e1990614e2e565b60405180910390fd5b5f600367ffffffffffffffff811115612e3e57612e3d614389565b5b6040519080825280601f01601f191660200182016040528015612e705781602001600182028036833780820191505090505b509050815f81518110612e8657612e856149dc565b5b602001015160f81c60f81b815f81518110612ea457612ea36149dc565b5b60200101907effffffffffffffffffffffffffffffffffffffffffffffffffffffffffffff191690815f1a90535081600181518110612ee657612ee56149dc565b5b602001015160f81c60f81b81600181518110612f0557612f046149dc565b5b60200101907effffffffffffffffffffffffffffffffffffffffffffffffffffffffffffff191690815f1a90535081600281518110612f4757612f466149dc565b5b602001015160f81c60f81b81600281518110612f6657612f656149dc565b5b60200101907effffffffffffffffffffffffffffffffffffffffffffffffffffffffffffff191690815f1a9053505f600267ffffffffffffffff811115612fb057612faf614389565b5b6040519080825280601f01601f191660200182016040528015612fe25781602001600182028036833780820191505090505b50905082600981518110612ff957612ff86149dc565b5b602001015160f81c60f81b815f81518110613017576130166149dc565b5b60200101907effffffffffffffffffffffffffffffffffffffffffffffffffffffffffffff191690815f1a90535082600a81518110613059576130586149dc565b5b602001015160f81c60f81b81600181518110613078576130776149dc565b5b60200101907effffffffffffffffffffffffffffffffffffffffffffffffffffffffffffff191690815f1a90535081816040516020016130b9929190614e96565b6040516020818303038152906040529350505050919050565b60605f600467ffffffffffffffff8111156130f0576130ef614389565b5b6040519080825280601f01601f1916602001820160405280156131225781602001600182028036833780820191505090505b5090508260f81b815f8151811061313c5761313b6149dc565b5b60200101907effffffffffffffffffffffffffffffffffffffffffffffffffffffffffffff191690815f1a90535060088363ffffffff16901c60f81b8160018151811061318c5761318b6149dc565b5b60200101907effffffffffffffffffffffffffffffffffffffffffffffffffffffffffffff191690815f1a90535060108363ffffffff16901c60f81b816002815181106131dc576131db6149dc565b5b60200101907effffffffffffffffffffffffffffffffffffffffffffffffffffffffffffff191690815f1a90535060188363ffffffff16901c60f81b8160038151811061322c5761322b6149dc565b5b60200101907effffffffffffffffffffffffffffffffffffffffffffffffffffffffffffff191690815f1a90535080915050919050565b60605f82036132a9576040518060400160405280600181526020017f300000000000000000000000000000000000000000000000000000000000000081525090506133b7565b5f8290505f5b5f82146132d85780806132c19061425f565b915050600a826132d1919061422f565b91506132af565b5f8167ffffffffffffffff8111156132f3576132f2614389565b5b6040519080825280601f01601f1916602001820160405280156133255781602001600182028036833780820191505090505b5090505b5f85146133b05760018261333d919061461c565b9150600a8561334c91906149ac565b60306133589190613fee565b60f81b81838151811061336e5761336d6149dc565b5b60200101907effffffffffffffffffffffffffffffffffffffffffffffffffffffffffffff191690815f1a905350600a856133a9919061422f565b9450613329565b8093505050505b919050565b6040518061014001604052805f81526020015f73ffffffffffffffffffffffffffffffffffffffff1681526020015f73ffffffffffffffffffffffffffffffffffffffff1681526020015f81526020015f81526020015f815260200160608152602001606081526020015f81526020015f60ff1681525090565b6040518061012001604052805f81526020015f81526020015f73ffffffffffffffffffffffffffffffffffffffff1681526020015f81526020015f8152602001606081526020015f81526020015f81526020015f600281111561349c5761349b6135de565b5b81525090565b5f5ffd5b5f5ffd5b5f819050919050565b6134bc816134aa565b81146134c6575f5ffd5b50565b5f813590506134d7816134b3565b92915050565b5f602082840312156134f2576134f16134a2565b5b5f6134ff848285016134c9565b91505092915050565b613511816134aa565b82525050565b5f73ffffffffffffffffffffffffffffffffffffffff82169050919050565b5f61354082613517565b9050919050565b61355081613536565b82525050565b5f819050919050565b61356881613556565b82525050565b5f81519050919050565b5f82825260208201905092915050565b8281835e5f83830152505050565b5f601f19601f8301169050919050565b5f6135b08261356e565b6135ba8185613578565b93506135ca818560208601613588565b6135d381613596565b840191505092915050565b7f4e487b71000000000000000000000000000000000000000000000000000000005f52602160045260245ffd5b6003811061361c5761361b6135de565b5b50565b5f81905061362c8261360b565b919050565b5f61363b8261361f565b9050919050565b61364b81613631565b82525050565b5f610120820190506136655f83018c613508565b613672602083018b613508565b61367f604083018a613547565b61368c606083018961355f565b613699608083018861355f565b81810360a08301526136ab81876135a6565b90506136ba60c083018661355f565b6136c760e083018561355f565b6136d5610100830184613642565b9a9950505050505050505050565b6136ec81613536565b81146136f6575f5ffd5b50565b5f81359050613707816136e3565b92915050565b5f60208284031215613722576137216134a2565b5b5f61372f848285016136f9565b91505092915050565b5f5f5f6060848603121561374f5761374e6134a2565b5b5f61375c868287016134c9565b935050602061376d868287016134c9565b925050604061377e868287016134c9565b9150509250925092565b5f60208201905061379b5f830184613508565b92915050565b5f6020820190506137b45f83018461355f565b92915050565b5f6020820190508181035f8301526137d281846135a6565b905092915050565b6137e3816134aa565b82525050565b6137f281613536565b82525050565b61380181613556565b82525050565b5f82825260208201905092915050565b5f6138218261356e565b61382b8185613807565b935061383b818560208601613588565b61384481613596565b840191505092915050565b5f60ff82169050919050565b6138648161384f565b82525050565b5f61014083015f8301516138805f8601826137da565b50602083015161389360208601826137e9565b5060408301516138a660408601826137e9565b5060608301516138b960608601826137f8565b5060808301516138cc60808601826137f8565b5060a08301516138df60a08601826137f8565b5060c083015184820360c08601526138f78282613817565b91505060e083015184820360e08601526139118282613817565b9150506101008301516139286101008601826137f8565b5061012083015161393d61012086018261385b565b508091505092915050565b5f6020820190508181035f830152613960818461386a565b905092915050565b5f8115159050919050565b61397c81613968565b82525050565b5f6020820190506139955f830184613973565b92915050565b6139a481613556565b81146139ae575f5ffd5b50565b5f813590506139bf8161399b565b92915050565b5f5f5f606084860312156139dc576139db6134a2565b5b5f6139e9868287016139b1565b93505060206139fa868287016139b1565b9250506040613a0b868287016139b1565b9150509250925092565b613a1e8161384f565b82525050565b5f602082019050613a375f830184613a15565b92915050565b5f5f5f60608486031215613a5457613a536134a2565b5b5f613a61868287016134c9565b9350506020613a72868287016136f9565b9250506040613a83868287016139b1565b9150509250925092565b5f604082019050613aa05f830185613508565b8181036020830152613ab281846135a6565b90509392505050565b5f5ffd5b5f5ffd5b5f5ffd5b5f5f83601f840112613adc57613adb613abb565b5b8235905067ffffffffffffffff811115613af957613af8613abf565b5b602083019150836001820283011115613b1557613b14613ac3565b5b9250929050565b5f5f5f5f5f5f5f60a0888a031215613b3757613b366134a2565b5b5f613b448a828b016136f9565b9750506020613b558a828b016139b1565b9650506040613b668a828b016139b1565b955050606088013567ffffffffffffffff811115613b8757613b866134a6565b5b613b938a828b01613ac7565b9450945050608088013567ffffffffffffffff811115613bb657613bb56134a6565b5b613bc28a828b01613ac7565b925092505092959891949750929550565b5f602082019050613be65f830184613547565b92915050565b5f61014082019050613c005f83018d613508565b613c0d602083018c613547565b613c1a604083018b613547565b613c27606083018a61355f565b613c34608083018961355f565b613c4160a083018861355f565b81810360c0830152613c5381876135a6565b905081810360e0830152613c6781866135a6565b9050613c7761010083018561355f565b613c85610120830184613a15565b9b9a5050505050505050505050565b613c9d81613631565b82525050565b5f61012083015f830151613cb95f8601826137da565b506020830151613ccc60208601826137da565b506040830151613cdf60408601826137e9565b506060830151613cf260608601826137f8565b506080830151613d0560808601826137f8565b5060a083015184820360a0860152613d1d8282613817565b91505060c0830151613d3260c08601826137f8565b5060e0830151613d4560e08601826137f8565b50610100830151613d5a610100860182613c94565b508091505092915050565b5f6020820190508181035f830152613d7d8184613ca3565b905092915050565b5f5f60408385031215613d9b57613d9a6134a2565b5b5f613da8858286016134c9565b9250506020613db9858286016139b1565b9150509250929050565b5f5f83601f840112613dd857613dd7613abb565b5b8235905067ffffffffffffffff811115613df557613df4613abf565b5b602083019150836001820283011115613e1157613e10613ac3565b5b9250929050565b5f5f5f5f5f5f60808789031215613e3257613e316134a2565b5b5f613e3f89828a016134c9565b9650506020613e5089828a016134c9565b955050604087013567ffffffffffffffff811115613e7157613e706134a6565b5b613e7d89828a01613dc3565b9450945050606087013567ffffffffffffffff811115613ea057613e9f6134a6565b5b613eac89828a01613dc3565b92509250509295509295509295565b5f819050919050565b5f613ede613ed9613ed484613517565b613ebb565b613517565b9050919050565b5f613eef82613ec4565b9050919050565b5f613f0082613ee5565b9050919050565b613f1081613ef6565b82525050565b5f602082019050613f295f830184613f07565b92915050565b7f4e487b71000000000000000000000000000000000000000000000000000000005f52602260045260245ffd5b5f6002820490506001821680613f7357607f821691505b602082108103613f8657613f85613f2f565b5b50919050565b5f606082019050613f9f5f830186613508565b613fac6020830185613508565b613fb96040830184613508565b949350505050565b7f4e487b71000000000000000000000000000000000000000000000000000000005f52601160045260245ffd5b5f613ff882613556565b915061400383613556565b925082820190508082111561401b5761401a613fc1565b5b92915050565b5f6040820190506140345f83018561355f565b614041602083018461355f565b9392505050565b5f8160011c9050919050565b5f5f8291508390505b600185111561409d5780860481111561407957614078613fc1565b5b60018516156140885780820291505b808102905061409685614048565b945061405d565b94509492505050565b5f826140b55760019050614170565b816140c2575f9050614170565b81600181146140d857600281146140e257614111565b6001915050614170565b60ff8411156140f4576140f3613fc1565b5b8360020a91508482111561410b5761410a613fc1565b5b50614170565b5060208310610133831016604e8410600b84101617156141465782820a90508381111561414157614140613fc1565b5b614170565b6141538484846001614054565b9250905081840481111561416a57614169613fc1565b5b81810290505b9392505050565b5f61418182613556565b915061418c8361384f565b92506141b97fffffffffffffffffffffffffffffffffffffffffffffffffffffffffffffffff84846140a6565b905092915050565b5f6141cb82613556565b91506141d683613556565b92508282026141e481613556565b915082820484148315176141fb576141fa613fc1565b5b5092915050565b7f4e487b71000000000000000000000000000000000000000000000000000000005f52601260045260245ffd5b5f61423982613556565b915061424483613556565b92508261425457614253614202565b5b828204905092915050565b5f61426982613556565b91507fffffffffffffffffffffffffffffffffffffffffffffffffffffffffffffffff820361429b5761429a613fc1565b5b600182019050919050565b5f819050919050565b6142c06142bb826134aa565b6142a6565b82525050565b5f8160601b9050919050565b5f6142dc826142c6565b9050919050565b5f6142ed826142d2565b9050919050565b61430561430082613536565b6142e3565b82525050565b5f819050919050565b61432561432082613556565b61430b565b82525050565b5f61433682886142af565b60208201915061434682876142f4565b6014820191506143568286614314565b6020820191506143668285614314565b6020820191506143768284614314565b6020820191508190509695505050505050565b7f4e487b71000000000000000000000000000000000000000000000000000000005f52604160045260245ffd5b5f819050815f5260205f209050919050565b5f6020601f8301049050919050565b5f82821b905092915050565b5f600883026144127fffffffffffffffffffffffffffffffffffffffffffffffffffffffffffffffff826143d7565b61441c86836143d7565b95508019841693508086168417925050509392505050565b5f61444e61444961444484613556565b613ebb565b613556565b9050919050565b5f819050919050565b61446783614434565b61447b61447382614455565b8484546143e3565b825550505050565b5f5f905090565b614492614483565b61449d81848461445e565b505050565b5b818110156144c0576144b55f8261448a565b6001810190506144a3565b5050565b601f821115614505576144d6816143b6565b6144df846143c8565b810160208510156144ee578190505b6145026144fa856143c8565b8301826144a2565b50505b505050565b5f82821c905092915050565b5f6145255f198460080261450a565b1980831691505092915050565b5f61453d8383614516565b9150826002028217905092915050565b6145568261356e565b67ffffffffffffffff81111561456f5761456e614389565b5b6145798254613f5c565b6145848282856144c4565b5f60209050601f8311600181146145b5575f84156145a3578287015190505b6145ad8582614532565b865550614614565b601f1984166145c3866143b6565b5f5b828110156145ea578489015182556001820191506020850194506020810190506145c5565b868310156146075784890151614603601f891682614516565b8355505b6001600288020188555050505b505050505050565b5f61462682613556565b915061463183613556565b925082820390508181111561464957614648613fc1565b5b92915050565b5f60a0820190506146625f830188613547565b61466f602083018761355f565b61467c604083018661355f565b818103606083015261468e81856135a6565b905061469d608083018461355f565b9695505050505050565b6146b08161384f565b81146146ba575f5ffd5b50565b5f815190506146cb816146a7565b92915050565b5f602082840312156146e6576146e56134a2565b5b5f6146f3848285016146bd565b91505092915050565b5f61470782886142f4565b6014820191506147178287614314565b6020820191506147278286614314565b6020820191506147378285614314565b6020820191506147478284614314565b6020820191508190509695505050505050565b5f60608201905061476d5f830186613547565b61477a6020830185613547565b614787604083018461355f565b949350505050565b61479881613968565b81146147a2575f5ffd5b50565b5f815190506147b38161478f565b92915050565b5f602082840312156147ce576147cd6134a2565b5b5f6147db848285016147a5565b91505092915050565b828183375f83830152505050565b5f6147fd8385613578565b935061480a8385846147e4565b61481383613596565b840190509392505050565b5f6080820190506148315f83018961355f565b61483e602083018861355f565b81810360408301526148518186886147f2565b905081810360608301526148668184866147f2565b9050979650505050505050565b5f6040820190506148865f830185613547565b614893602083018461355f565b9392505050565b5f6148a582846142af565b60208201915081905092915050565b5f81905092915050565b5f6148c983856148b4565b93506148d68385846147e4565b82840190509392505050565b5f6148ee8286886148be565b91506148fb8284866148be565b915081905095945050505050565b5f81519050919050565b5f82825260208201905092915050565b5f61492d82614909565b6149378185614913565b9350614947818560208601613588565b61495081613596565b840191505092915050565b5f6080820190508181035f8301526149738187614923565b905081810360208301526149878186614923565b90506149966040830185613508565b6149a36060830184613508565b95945050505050565b5f6149b682613556565b91506149c183613556565b9250826149d1576149d0614202565b5b828206905092915050565b7f4e487b71000000000000000000000000000000000000000000000000000000005f52603260045260245ffd5b5f81905092915050565b7fe8b4a6e688b7e5908defbc9a00000000000000000000000000000000000000005f82015250565b5f614a47600c83614a09565b9150614a5282614a13565b600c82019050919050565b5f614a678261356e565b614a718185614a09565b9350614a81818560208601613588565b80840191505092915050565b5f614a9782614a3b565b9150614aa38284614a5d565b915081905092915050565b7fe8b4a6e58fb7efbc9a00000000000000000000000000000000000000000000005f82015250565b5f614ae2600983614a09565b9150614aed82614aae565b600982019050919050565b5f614b0282614ad6565b9150614b0e8284614a5d565b915081905092915050565b7fe5b08fe58699efbc9a00000000000000000000000000000000000000000000005f82015250565b5f614b4d600983614a09565b9150614b5882614b19565b600982019050919050565b5f614b6d82614b41565b9150614b798284614a5d565b915081905092915050565b5f614b8e82614909565b614b9881856148b4565b9350614ba8818560208601613588565b80840191505092915050565b5f614bbf828b614b84565b9150614bcb828a614b84565b9150614bd78289614b84565b9150614be38288614b84565b9150614bef8287614b84565b9150614bfb8286614b84565b9150614c078285614b84565b9150614c138284614b84565b91508190509998505050505050505050565b5f614c308284614b84565b915081905092915050565b5f81519050614c49816134b3565b92915050565b5f60208284031215614c6457614c636134a2565b5b5f614c7184828501614c3b565b91505092915050565b5f7fff0000000000000000000000000000000000000000000000000000000000000082169050919050565b5f819050919050565b614cbf614cba82614c7a565b614ca5565b82525050565b5f614cd08286614cae565b600182019150614ce082856142af565b602082019150614cf082846142af565b602082019150819050949350505050565b7f30000000000000000000000000000000000000000000000000000000000000005f82015250565b5f614d35600183614a09565b9150614d4082614d01565b600182019050919050565b5f614d5582614d29565b9150614d618284614a5d565b915081905092915050565b7f2e000000000000000000000000000000000000000000000000000000000000005f82015250565b5f614da0600183614a09565b9150614dab82614d6c565b600182019050919050565b5f614dc18285614a5d565b9150614dcc82614d94565b9150614dd88284614a5d565b91508190509392505050565b7f496e76616c696420416c69706179204944206c656e67746800000000000000005f82015250565b5f614e18601883613578565b9150614e2382614de4565b602082019050919050565b5f6020820190508181035f830152614e4581614e0c565b9050919050565b7f2a2a2a2a2a2a00000000000000000000000000000000000000000000000000005f82015250565b5f614e80600683614a09565b9150614e8b82614e4c565b600682019050919050565b5f614ea18285614a5d565b9150614eac82614e74565b9150614eb88284614a5d565b9150819050939250505056fea26469706673582212203b10fa1b01e684773d6556b75d090056b8fa9900b08e2858f4e768f9b3edf11f64736f6c634300081e0033","linkReferences":{}},"methodIdentifiers":{"appExeCommit()":"0e9aa4b3","appVmCommit()":"af472c06","cancelExpiredTrade(bytes32)":"6c988014","createAndLockOrder(address,uint256,uint256,string,string)":"7c132e26","fillOrder(bytes32,address,uint256)":"78b3f2ec","getOrder(bytes32)":"5778472a","getOrderAlipayId(bytes32)":"3516f563","getOrderAlipayName(bytes32)":"e3ab81a0","getOrderRemainingAmount(bytes32)":"e760d977","getOrderTotalAmount(bytes32)":"7ba67e1f","getTrade(bytes32)":"a3b13799","getTradeStatus(bytes32)":"77407399","isOrderFillable(bytes32)":"9cd0f3f0","maxTradeValueCny()":"a4edf4ed","minTradeValueCny()":"1e958f62","orders(bytes32)":"9c3f1e90","owner()":"8da5cb5b","pause()":"8456cb59","paused()":"5c975abb","paymentWindow()":"cab55d56","publicKeyDerHash()":"19159a00","renounceOwnership()":"715018a6","submitPaymentProof(bytes32,bytes32,bytes,bytes)":"d0d1ec0c","trades(bytes32)":"00162420","transferOwnership(address)":"f2fde38b","unpause()":"3f4ba83a","updateConfig(uint256,uint256,uint256)":"73ad4946","updateZkPDFConfig(bytes32,bytes32,bytes32)":"0d82ec5a","updateZkVerifier(address)":"0148606c","withdrawAmount(bytes32,uint256)":"ce3ba25f","zkVerifier()":"d6df096d"},"id":27}